:100000000C948D000C94B5000C94B5000C94430531
:100010000C9443050C9443050C94B5000C946D01AD
:100020000C94B5000C94B5000C94B5000C946406C7
:100030000C94B5000C94B5000C94B5000C94B5006C
:100040000C94F9040C94B5000C94CC030C94A60306
:100050000C94B5000C94B5000C94B5000C94B5004C
:100060000C94B5000C94B5007F0F990FAE0FC90F1B
:10007000D40F1210191023102E1038103810381009
:100080003810381038103810381038103810381030
:100090003810381038103810381038103810381020
:1000A00038103810381038107F0F940F990FAE0F9A
:1000B000C90FD40FEF0FFA0F051000000000240045
:1000C00027002A00000000080002010000030407C6
:1000D00000000000000000000200000000250028D1
:1000E000002B000000000023002600290004040467
:1000F00004040404040202020202020303030303D1
:1001000003010204081020408001020408102001AD
:10011000020408102000A012901211241FBECFEF7D
:10012000D8E0DEBFCDBF12E0A0E0B1E0E6E8F3E347
:1001300002C005900D92AE30B107D9F723E0AEE0D2
:10014000B2E001C01D92AE3EB207E1F710E0CCE88C
:10015000D0E004C02197FE010E948917CB38D10757
:10016000C9F70E94CF0B0C94B6190C940000CF92E3
:10017000DF92EF92FF920F931F93CF93DF936C0167
:100180007A018B01C0E0D0E0CE15DF0589F0D801FF
:100190006D918D01D601ED91FC910190F081E02DE2
:1001A000C6010995892B11F47E0102C02196ECCF7E
:1001B000C701DF91CF911F910F91FF90EF90DF90DA
:1001C000CF9008954F925F926F927F928F929F92FD
:1001D000AF92BF92CF92DF92EF92FF92CF93DF93D5
:1001E00085E893E00E944B0B2B013C0124E630E0B4
:1001F00040E050E00E9409169B01AC0160EA76E8FD
:1002000081E090E00E9459176B017C01E5E8F3E082
:10021000819190ED980F9A30D8F38E3219F5EF0155
:1002200080E1882E87E2982EA12CB12CA99180ED37
:100230008A0F8A30B8F40A2E000CBB0BD097A501A8
:1002400094010E94CA15C60ED71EE81EF91EC501EC
:10025000B4012AE030E040E050E00E940916490174
:100260005A01E4CFC701B6016D5F7F4F8F4F9F4F9B
:1002700026E030E040E050E00E94091669017A0172
:10028000C301B20124E630E040E050E00E940916CC
:1002900060E472E48FE090E00E9459176C0D7D1DC0
:1002A0008E1D9F1DDF91CF91FF90EF90DF90CF903B
:1002B000BF90AF909F908F907F906F905F904F9086
:1002C000089587E692E00E94370221E0892B09F425
:1002D00020E0822F08950E94A1191F920F920FB65D
:1002E0000F9211242F933F934F935F936F937F93BC
:1002F0008F939F93AF93BF93EF93FF93809163028C
:1003000090916402A0916502B0916602892B8A2BBC
:100310008B2B59F180916002E0916102F0916202B1
:100320009081892780838091630290916402A091DB
:100330006502B0916602181619061A061B060CF023
:100340003DC08091630290916402A0916502B091DA
:1003500066020197A109B109809363029093640238
:10036000A0936502B093660229C080910001E8ED78
:10037000F0E0E4919FEF90930001E130B9F098F044
:10038000E230C9F4909170009D7F9093700091E0ED
:100390009093B0009091B100987F94609093B100D9
:1003A0001092B30008C010926E0005C090916F00CB
:1003B0009D7F90936F0060E00E94FE03FF91EF919C
:1003C000BF91AF919F918F917F916F915F914F916D
:1003D0003F912F910F900FBE0F901F9018956115B0
:1003E000710579F0FB0101900020E9F73197AF0129
:1003F000461B570BDC01ED91FC910280F381E02D4F
:10040000099480E090E008950C94EF01FC01538D75
:10041000448D252F30E0842F90E0821B930B5417DE
:1004200010F0CF96089501970895FC01918D828D6B
:10043000981761F0828DDF01A80FB11D5D968C9138
:10044000928D9F5F9F73928F90E008958FEF9FEF43
:100450000895FC01918D828D981731F0828DE80FFF
:10046000F11D858D90E008958FEF9FEF0895FC01B9
:10047000918D228D892F90E0805C9F4F821B910986
:100480008F7399270895FC01848DDF01A80FB11D9A
:10049000A35ABF4F2C91848D90E001968F739927BA
:1004A000848FA689B7892C93A089B1898C918064A7
:1004B0008C93938D848D981306C00288F389E02D68
:1004C00080818F7D80830895EF92FF920F931F9319
:1004D000CF93DF93EC0181E0888F9B8D8C8D9813F7
:1004E00005C0E889F989808185FD24C0F62E0B8D31
:1004F00010E00F5F1F4F0F731127E02E8C8DE81255
:100500000CC00FB607FCFACFE889F989808185FF16
:10051000F5CFCE010E944302F1CF8B8DFE01E80F93
:10052000F11DE35AFF4FF0820B8FEA89FB8980812E
:10053000806207C0EE89FF896083E889F98980813C
:100540008064808381E090E0DF91CF911F910F91D3
:10055000FF90EF900895CF93DF93EC01888D88236F
:10056000C9F0EA89FB89808185FD05C0A889B98920
:100570008C9186FD0FC00FB607FCF5CF808185FFFB
:10058000F2CFA889B9898C9185FFEDCFCE010E9469
:100590004302E7CFDF91CF91089580E090E0892B6F
:1005A00029F00E94610181110C94000008953FB769
:1005B000F89480915C0290915D02A0915E02B091EE
:1005C0005F0226B5A89B05C02F3F19F00196A11D1B
:1005D000B11D3FBFBA2FA92F982F8827820F911DD9
:1005E000A11DB11DBC01CD0142E0660F771F881F20
:1005F000991F4A95D1F70895209110023091110268
:100600002817390771F490910E0280910F02981704
:1006100041F0E0910E02F0E0E95EFD4F808190E054
:1006200008958FEF9FEF089508951F93CF93DF9361
:10063000DC015C962D913C915D972115310539F4D3
:1006400081E090E013969C938E9312973DC0519653
:10065000ED91FC91529750969C915097892F8095DF
:100660001FB75E964C915E9741FB772770F941FD6D
:100670006095F8944081772311F0492B01C04823FD
:100680004083E9012197F1F748E0508160FF02C003
:10069000592B01C058235083E9012197F1F7669542
:1006A000415099F7772321F090818923808303C0FB
:1006B0008081982B90831FBF5C968D919C915D9754
:1006C0000197F1F721E030E0C901DF91CF911F914F
:1006D000089520911002309111022817390771F402
:1006E00080910F0220910E0290E0805C9F4F821B50
:1006F000910960E470E00E947517089580E090E031
:100700000895209110023091110228173907B9F489
:1007100090910E0280910F02981789F0E0910E02DD
:10072000F0E0E95EFD4F808120910E0230E02F5F06
:100730003F4F2F73332720930E0290E008958FEFE1
:100740009FEF0895089580E090E008951F920F9222
:100750000FB60F9211242F933F934F935F936F9394
:100760007F938F939F93AF93BF93EF93FF9387E60E
:1007700092E00E944302FF91EF91BF91AF919F9150
:100780008F917F916F915F914F913F912F910F903A
:100790000FBE0F901F9018951F920F920FB60F92D9
:1007A00011242F938F939F93EF93FF93E091770200
:1007B000F09178028081E0917D02F0917E0282FDCD
:1007C00012C09081809180028F5F8F73209181028F
:1007D000821751F0E0918002F0E0E959FD4F958FCA
:1007E0008093800201C08081FF91EF919F918F9152
:1007F0002F910F900FBE0F901F90189590E0FC0165
:10080000EC53FF4F3491FC01EF5FFE4F2491FC014C
:10081000E351FF4FE491EE2309F43BC0332339F158
:10082000333091F038F43130A9F0323001F584B52D
:100830008F7D12C0373091F03830A1F03430B9F4E8
:10084000809180008F7D03C0809180008F7780939E
:1008500080000DC084B58F7784BD09C08091B00041
:100860008F7703C08091B0008F7D8093B000F0E05F
:10087000EE0FFF1FE752FF4FA591B4918FB7F89489
:10088000EC91611103C020952E2301C02E2B2C93D7
:100890008FBF0895CF93DF93EC0160E08E810E94BB
:1008A000FE0361E08E810E94FE0360E08E810E9463
:1008B000FE038BE891E00197F1F7DF91CF91089566
:1008C000CF93DF9390E0FC01EF5FFE4F2491FC019A
:1008D000E351FF4F8491882361F190E0880F991FC5
:1008E000FC01E654FF4FC591D491FC01E752FF4F44
:1008F000A591B491611109C09FB7F89488812095A2
:1009000082238883EC912E230BC0623061F49FB761
:10091000F8943881822F809583238883EC912E2B45
:100920002C939FBF06C08FB7F894E8812E2B2883A5
:100930008FBFDF91CF9108958E3008F08E50877071
:10094000806480937C0080917A00806480937A0038
:1009500080917A0086FDFCCF80917800209179000B
:1009600090E0922B08958F929F92AF92BF92CF9278
:10097000DF92EF92FF926B017C010E94D7024B0144
:100980005C01C114D104E104F104F1F00E94D7022A
:10099000DC01CB0188199909AA09BB09883E93405B
:1009A000A105B10570F321E0C21AD108E108F108F0
:1009B00088EE880E83E0981EA11CB11CC114D104DE
:1009C000E104F10419F7DDCFFF90EF90DF90CF90B5
:1009D000BF90AF909F908F9008952FB7F89460913B
:1009E00058027091590280915A0290915B022FBF78
:1009F00008951F920F920FB60F9211242F933F93D9
:100A00008F939F93AF93BF93809158029091590217
:100A1000A0915A02B0915B023091570223E0230F5C
:100A20002D3720F40196A11DB11D05C026E8230F26
:100A30000296A11DB11D20935702809358029093F6
:100A40005902A0935A02B0935B0280915C0290918C
:100A50005D02A0915E02B0915F020196A11DB11DE1
:100A600080935C0290935D02A0935E02B0935F025C
:100A7000BF91AF919F918F913F912F910F900FBE9A
:100A80000F901F9018951F920F920FB60F9211247E
:100A90002F933F934F935F936F937F938F939F9386
:100AA000AF93BF93EF93FF93E0911002F091110287
:100AB000309709F451C0968DA685B785858591FF3D
:100AC00004C09C91892329F447C09C91892309F093
:100AD00043C0A389B4899C918589809589238C938F
:100AE000868997890197F1F7608D718DA685B78505
:100AF000558538E020E0CB010197F1F7822F90E097
:100B000095958795282F4C91452309F02068315001
:100B100091F7868D81FD209580910F0290E00196DE
:100B20008F73992730910E02381749F0A0910F0268
:100B3000B0E0A95EBD4F2C9380930F0203C0868D59
:100B40008160868F828D938D0197F1F7A389B48997
:100B50009C918589892B8C93FF91EF91BF91AF91E7
:100B60009F918F917F916F915F914F913F912F91C5
:100B70000F900FBE0F901F901895E0911002F0910A
:100B80001102E817F90769F4A389B4899C91858952
:100B9000809589238C93109211021092100281E0AB
:100BA000089580E00895CF92DF92EF92FF920F9325
:100BB0001F93CF93DF937C016C0187E0C80ED11C9B
:100BC000C0E0D0E0062F10E0B8010C2E02C07595F1
:100BD00067950A94E2F76170F60181916F010E94B6
:100BE000FE032196C430D10579F7C701DF91CF917B
:100BF0001F910F91FF90EF90DF90CF900C944A04DB
:100C0000CF92DF92EF92FF920F931F93CF93DF93D8
:100C1000EC01F62E642F8C810E94FE038D818F3FA4
:100C200019F060E00E94FE038F850F2D10E084FF15
:100C300025C06E0187E0C80ED11CE12CF12CB80153
:100C40000E2C02C0759567950A94E2F76170F60163
:100C500081916F010E94FE03FFEFEF1AFF0A88E007
:100C6000E816F10461F7CE01DF91CF911F910F914A
:100C7000FF90EF90DF90CF900C944A04B80184E08D
:100C8000759567958A95E1F7CE010E94D3056F2D82
:100C9000CE01DF91CF911F910F91FF90EF90DF90E8
:100CA000CF900C94D30541E00E94000681E090E0D3
:100CB000089540E00C94000661E00E9459068BE321
:100CC0009FE10197F1F708951F920F920FB60F92CF
:100CD00011242F933F934F935F936F937F938F9341
:100CE0009F93AF93BF93EF93FF938091160287FF7B
:100CF00005C010928500109284001BC0209116023E
:100D0000022E000C330B8091280390E0281739073E
:100D100084F480911602082E000C990BFC01EE0F52
:100D2000FF1F8E0F9F1FFC01EC5FFC4F808186FD33
:100D300015C0809116028F5F8093160220911602D3
:100D4000022E000C330B8091280390E028173907FE
:100D5000C4F4809116028C3064F113C080911602A5
:100D6000082E000C990BFC01EE0FFF1F8E0F9F1F2A
:100D7000FC01EC5FFC4F808160E08F730E94FE03FA
:100D8000D8CF8091840090918500049680349C494E
:100D900018F480E49CE905C080918400909185005E
:100DA000049690938900809388008FEF80931602B9
:100DB0003BC0209184003091850080911602082E5E
:100DC000000C990BFC01EE0FFF1F8E0F9F1FFC0103
:100DD000EC5FFC4F81819281820F931F9093890079
:100DE0008093880080911602082E000C990BFC015C
:100DF000EE0FFF1F8E0F9F1FFC01EC5FFC4F8081E9
:100E000086FF12C080911602082E000C990BFC017F
:100E1000EE0FFF1F8E0F9F1FFC01EC5FFC4F8081C8
:100E200061E08F730E94FE03FF91EF91BF91AF913C
:100E30009F918F917F916F915F914F913F912F91F2
:100E40000F900FBE0F901F9018958F929F92AF92A8
:100E5000BF920F931F93CF93DF93CDB7DEB7A197C8
:100E60000FB6F894DEBF0FBECDBF19A2423008F412
:100E70004AE08E010F5D1F4F842E912CA12CB12CC6
:100E8000A50194010E940916E62FB901CA0101507B
:100E90001109EA3014F4E05D01C0E95CD801EC937B
:100EA000232B242B252B61F7B80187E692E00E94C3
:100EB000EF01A1960FB6F894DEBF0FBECDBFDF9154
:100EC000CF911F910F91BF90AF909F908F900895F9
:100ED000EF92FF920F931F93CF93DF93EC01423079
:100EE00018F08F8588608F874B8B1C8A80E48D8BF0
:100EF0006E8B70E0605C7F4F6F8B61E08C810E9435
:100F000060048D818F3F19F061E00E94600461E010
:100F10008E810E9460047E0187E0E80EF11C00E0F3
:100F200010E08F8584FD03C084E090E002C088E07B
:100F300090E0081719074CF461E0F70181917F01F7
:100F40000E9460040F5F1F4FECCF8BE39DE0019781
:100F5000F1F760E08C810E94FE0360E08E810E94C8
:100F6000FE038D818F3F19F060E00E94FE036F85C4
:100F700064FD1DC063E0CE010E94D3050BE416E4BE
:100F8000C8010197F1F763E0CE010E94D305C801C3
:100F90000197F1F763E0CE010E94D30583E592E06B
:100FA0000197F1F762E0CE010E94D30516C060629E
:100FB000CE010E9459068BE496E40197F1F76F8504
:100FC0006062CE010E94590683E592E00197F1F735
:100FD0006F856062CE010E9459066F856062CE0106
:100FE0000E94590684E0888B6CE0CE010E9459066D
:100FF000CE010E945C0682E0898B66E0CE01DF9123
:10100000CF911F910F91FF90EF900C94590684306F
:1010100008F083E09091D403891710F08FEF890FC7
:10102000E82FF0E0EF53FC4F6489606881EC93E0B7
:101030000C945906E0916702F09168020190F081EA
:10104000E02D682F87E692E009944F925F926F92AD
:101050007F928F929F92AF92BF92CF92DF92EF9248
:10106000FF92CF936B017C019B01AC010E9454174E
:10107000882319F061E072E027C046015701E89427
:10108000B7F82FEF3FEF4FE75FE7C501B4010E94CC
:10109000541781110DC02FEF3FEF4FE75FE7C501F8
:1010A000B4010E947C1418161CF465E072E00CC0B8
:1010B0002FEF3FEF4FE75FE4C701B6010E944F17E4
:1010C00018169CF469E072E087E692E0CF91FF90F9
:1010D000EF90DF90CF90BF90AF909F908F907F90D8
:1010E0006F905F904F900C94EF012FEF3FEF4FE721
:1010F0005FECC701B6010E947C1487FDE3CF20E0BE
:1011000030E0A901C701B6010E947C1487FF09C025
:101110008DE20E941A085C01F7FAF094F7F8F09457
:1011200002C0A12CB12C2CEB37E346E055E3C701FC
:10113000B6010E943B162B013C010E9420176B0157
:101140007C010E9481149B01AC01C301B2010E9489
:101150003A162B013C014AE0C701B6010E9425075F
:101160007C018EE20E941A08EA0CFB1CE80EF91EB4
:10117000C7E0C15019F120E030E040E251E4C30182
:10118000B2010E94E2142B013C010E9420174B0186
:10119000A12CB12C4AE0C501B4010E942507E80E3C
:1011A000F91EC501B4010E9481149B01AC01C30169
:1011B000B2010E943A162B013C01DBCFC701CF914F
:1011C000FF90EF90DF90CF90BF90AF909F908F9067
:1011D0007F906F905F904F9008953F924F925F92F3
:1011E0006F927F928F929F92AF92BF92CF92DF9237
:1011F000EF92FF920F931F93CF93DF9300D000D015
:10120000CDB7DEB720910001263021F02F3F09F045
:101210002CC204C0E8EDF0E0349076C026E02093C4
:101220000001E8EDF0E0E491EF3F09F41EC2E13087
:1012300011F1E23009F443C0E11165C014BC15BCE2
:1012400024B5226024BD25B5216025BDE3EFF0E083
:10125000E491F0E0EE0FFF1FE752FF4F259134912C
:101260003093E1032093E003E7E0F1E0E491E093C1
:10127000DF03312C4BC0109280001092810020912E
:1012800081002860209381002091810021602093BB
:101290008100E3EFF0E0E491F0E0EE0FFF1FE75292
:1012A000FF4F259134913093DE032093DD03E7E077
:1012B000F1E0E491E093DC033324339427C01092EF
:1012C000B0001092B1002091B00022602093B000D5
:1012D0002091B10021602093B100E3EFF0E0E491B0
:1012E000F0E0EE0FFF1FE752FF4F2591349130934E
:1012F000620220936102E7E0F1E0E491E093600292
:10130000B2E03B2E03C03E2E37FCAFC12A013B01A9
:101310008C0161E086E00E9460044801A12CB12CA0
:10132000832D8D7F09F0BBC060E072E18AE790E019
:10133000A50194010E94A01529833A834B835C8305
:1013400069017A0121E0C21AD108E108F1088FEFA2
:10135000C816D104E104F10409F008F44CC060E4BB
:1013600072E48FE090E0A50194010E94A01569014C
:101370007A01E1E0CE1AD108E108F108F2E03F126B
:1013800020C02FEFC216D104E104F10409F008F4E3
:101390006AC160E970ED83E090E0A50194010E94CC
:1013A000A01569017A0181E0C81AD108E108F108A5
:1013B000EFEFCE16D104E104F10409F0D0F583E09B
:1013C00067C0FFEFCF16D104E104F104B1F0A8F03B
:1013D00068E478EE81E090E0A50194010E94A015F8
:1013E00069017A0181E0C81AD108E108F1083320C7
:1013F00009F4DFC02FC181E001C082E03320A1F0F9
:1014000047C089819A81AB81BC812AE0B595A795B7
:10141000979587952A95D1F76C017D0121E0C21A35
:10142000D108E108F10885E095B5987F892B85BD45
:101430006FC068E478EE81E090E0A50194010E941D
:10144000A01569017A01F1E0CF1AD108E108F1088D
:101450002FEFC216D104E104F10409F008F4A7C08B
:1014600064E274EF80E090E0A50194010E94A01571
:1014700069017A01E1E0CE1AD108E108F108FFEF35
:10148000CF16D104E104F10411F008F0B4C085E0F6
:101490009091B100987F892B8093B10039C060E0B2
:1014A00072E18AE790E0A50194010E94A01569010C
:1014B0007A0181E0C81AD108E108F108C114D10409
:1014C000E1E0EE06F10488F068E478EE81E090E077
:1014D000A50194010E94A01569017A01F1E0CF1ADB
:1014E000D108E108F10893E001C091E021E0321257
:1014F0000FC080918100887F892B809381004114E7
:1015000051046104710449F42FEF3FEFA9012DC08C
:10151000411451046104710471F0D801AA0FBB1F7A
:10152000A30192010E94BF1528EE33E040E050E095
:101530000E94091603C02FEF3FEFA90181E0381682
:10154000A1F0E2E03E1619F131108FC0C7BC209324
:10155000E6033093E7034093E8035093E903809157
:101560006E00826080936E0080C0D0928900C0922D
:1015700088002093E2033093E3034093E403509305
:10158000E50380916F00826080936F006EC0C0920F
:10159000B30020936302309364024093650250933A
:1015A0006602809170008260809370005EC084E06B
:1015B0006FCFFFEFCF16D104E104F104D1F0C8F0F2
:1015C00062E17AE780E090E0A50194010E94A01515
:1015D00069017A0181E0C81AD108E108F108EFEF4A
:1015E000CE16D104E104F10411F008F00ACF84E032
:1015F0001BCF83E019CF62E17AE780E090E0A5019C
:1016000094010E94A01569017A0181E0C81AD108ED
:10161000E108F108EFEFCE16D104E104F104C1F0C6
:10162000B8F089819A81AB81BC814AE0B595A795D4
:10163000979587954A95D1F76C017D0121E0C21AF3
:10164000D108E108F108332009F4EDCE87E020CF7E
:1016500086E0D4CEFFEFCF16D104E104F10409F007
:1016600050F684E0CBCE82E013CF0F900F900F9016
:101670000F90DF91CF911F910F91FF90EF90DF902E
:10168000CF90BF90AF909F908F907F906F905F9022
:101690004F903F9008950F931F93CF93DF93EC01EA
:1016A00060E070E0CB01E99120ED2E0F2A30C0F40C
:1016B000AAE0B0E09B01AC010E94BF150E2FEE0F17
:1016C000110B220B330BDC01CB01800F911FA21FEA
:1016D000B31FBC01CD016053710981099109E3CFAA
:1016E000DF91CF911F910F9108950F931F93CF9387
:1016F000C1E0809185038D3221F0C0E005E813E060
:1017000002C006E813E0C8010E944B0B9B01AC012C
:10171000A4E6B0E00E94BF15F801DF01219130ED91
:10172000320F3A30D0F32E3269F511962C91119781
:1017300030ED320F3A3030F5022E000C330B2053CF
:1017400031094AE0429F8001439F100D1124012E70
:10175000000C220B330B600F711F821F931F129618
:101760000C9120ED200F2A3068F4002E000C110B94
:1017700000531109012E000C220B330B600F711F57
:10178000821F931FCC2339F09095809570956195B9
:101790007F4F8F4F9F4FCF911F910F910895CF9300
:1017A000DF9300D000D000D0CDB7DEB7789484B5F9
:1017B000826084BD84B5816084BD85B5826085BD4D
:1017C00085B5816085BD80916E00816080936E00DB
:1017D00010928100809181008260809381008091CD
:1017E000810081608093810080918000816080937E
:1017F00080008091B10084608093B1008091B0003E
:1018000081608093B00080917A00846080937A0038
:1018100080917A00826080937A0080917A00816062
:1018200080937A0080917A00806880937A00109289
:10183000C10061E088E00E94600461E081E00E94F4
:10184000600461E087E00E9460048091D9038C30DD
:1018500008F051C061E08DE00E9460048091D903DE
:10186000E82FF0E09F01220F331FE20FF31FEC5F20
:10187000FC4F9081907C9D6090831092DA031092CF
:10188000DB036CE00E9469172CE0829FB0011124F9
:1018900040E050E09A01260F371FF901EE0FFF1FBD
:1018A0002E0F3F1FF901EC5FFC4F908196FD16C093
:1018B0004F5F5F4F4C30510569F781110FC0109297
:1018C000800082E080938100109285001092840055
:1018D000B19A80916F00826080936F00E091D9038C
:1018E000F0E0CF01880F991FE80FF91FEC5FFC4F64
:1018F00080818064808361E086E00E94600442E031
:101900006EE081EC93E00E94680764E670E080E09E
:1019100090E00E94B30460E08EE00E94600460E00A
:101920008FE00E94600461E086E00E94600461E054
:1019300087E00E94600461E08AE00E94600460E049
:1019400087E00E94FE0360E08AE00E94FE0310929E
:10195000BD031092BC031092BB031092BA03109205
:10196000B9031092B8038DE991E09093BF0380937F
:10197000BE039091AE03963108F057C02DEB30E0D6
:101980003093B9032093B8032BE931E03093BB03C4
:101990002093BA032CE231E03093BD032093BC03C3
:1019A00020916800983050F031E09E3008F430E02B
:1019B00081E001C0880F3A95EAF701C084E0822BEC
:1019C00080936800983038F09E3040F0963148F0AF
:1019D00020E030E008C02DE630E005C02BE630E026
:1019E00002C02CE630E03093B6032093B503983064
:1019F00030F481E001C0880F9A95EAF70EC0292FD4
:101A000030E09E3018F42850310902C02E503109C0
:101A100081E001C0880F2A95EAF78093B70380918F
:101A2000BE039091BF030197F1F78091BC039091A1
:101A3000BD03892B21F18091100290911102A3E046
:101A4000823A9A07E1F0009711F00E94BD0580915B
:101A5000C0038E7F8093C00310920F0210920E027B
:101A600082EA93E09093110280931002E091B50313
:101A7000F091B60390818091B703892B8083E09128
:101A80007702F091780282E08083E0917302F09116
:101A900074021082E0917502F09176028FEC8083DF
:101AA00010927F02E0917B02F0917C0286E08083BD
:101AB000E0917902F0917A02808180618083E091E7
:101AC0007902F0917A02808188608083E0917902C6
:101AD000F0917A02808180688083E0917902F091B0
:101AE0007A0280818F7D808388248A9423E0922EDD
:101AF000A12CB12C34EB432E512C612C712C8EE097
:101B00000E949C048FE00E949C048EE00E949C0432
:101B1000BC01990F880B990B0E94831420E030E0E0
:101B200040EA50E40E94E21420E030E048EC52E445
:101B30000E94E21420E030E040E85AE30E94E21400
:101B40000E9419178B018FE00E949C04BC01990F21
:101B5000880B990B0E94831420E030E040EA50E4A7
:101B60000E94E21420E030E048EC52E40E94E214CB
:101B700020E030E040E85AE30E94E2140E94191786
:101B8000709315026093140262E370E080E090E0CD
:101B90000E94B3040E94ED046B017C010E94ED04DD
:101BA000DC01CB018C199D09AE09BF09883E934029
:101BB000A105B10508F08CC287E692E00E943702C9
:101BC000892B61F387E692E00E941502382E8091FE
:101BD000980390919903A0919A03B0919B03019669
:101BE000A11DB11D8093980390939903A0939A032C
:101BF000B0939B03B4E23B1609F448C2E09196030C
:101C0000B3153CF0FAE03F1679F02DE032124CC2E9
:101C10000BC08AE2381641F09CE2391245C280912D
:101C20008303832580938303EF3008F021C2F0E023
:101C3000EB57FC4F108280918403882309F428C15C
:101C4000209185033FEB320F822F022E000C990B5F
:101C5000363010F4C79707C02156263018F4875540
:101C6000910901C0C097282F2295207F30918603CB
:101C70004FEB430F832F032E000C990B463010F4CB
:101C8000C79707C03156363018F48755910901C0FF
:101C9000C097820F909183038913F0C080919703BE
:101CA000882309F4E5C180919C0390919D030196DE
:101CB00090939D0380939C03809177039091780388
:101CC000A0917903B0917A03809373039093740386
:101CD000A0937503B093760380917F039091800366
:101CE000A0918103B091820380937B0390937C0346
:101CF000A0937D03B0937E0380919403882309F41D
:101D000064C0813009F0B4C18091330390913403F1
:101D1000A0913503B091360380932F039093300345
:101D2000A0933103B093320380913B0390913C0325
:101D3000A0913D03B0913E03809337039093380305
:101D4000A0933903B0933A038091430390914403E5
:101D5000A0914503B091460380933F0390934003C5
:101D6000A0934103B093420380914B0390914C03A5
:101D7000A0914D03B0914E03809347039093480385
:101D8000A0934903B0934A0380915B0390915C0355
:101D9000A0915D03B0915E03809357039093580325
:101DA000A0935903B0935A03809163039091640305
:101DB000A0916503B091660380935F0390936003E5
:101DC000A0936103B093620353C180915303909138
:101DD0005403A0915503B091560380934F03909301
:101DE0005003A0935103B093520380913303909119
:101DF0003403A0913503B091360380932F03909361
:101E00003003A0933103B093320380914303909148
:101E10004403A0914503B091460380933F03909300
:101E20004003A0934103B093420380914B039091F0
:101E30004C03A0914D03B0914E03809347039093C0
:101E40004803A0934903B0934A0380917103909192
:101E500072039093700380936F0380916B03909152
:101E60006C03A0916D03B0916E0380936703909310
:101E70006803A0936903B0936A03FAC080919E033C
:101E800090919F03019690939F0380939E03F0C0CF
:101E90009091950391111BC085E893E0E7E3F1E091
:101EA000DC012D91222309F434C331912317C9F3A6
:101EB000EBEFF1E0DC012D91CD01222309F42DC3DC
:101EC00031912317B9F3A2E0A0939403D1C0E0911C
:101ED0009403E23009F4CCC080918503882309F48F
:101EE000C7C0B0E2EB9FF0011124E92B3197E93232
:101EF000F10508F0BDC0EC5CFF4F0C9489170E94FF
:101F0000750B609333037093340380933503909380
:101F100036030E94ED0460937703709378038093F7
:101F2000790390937A03A4C091E0813409F07DC0D5
:101F30007DC00E94E200609343037093440380934A
:101F40004503909346030E94ED0460937F037093D2
:101F5000800380938103909382038AC0833509F0C4
:101F600087C08091430390914403A0914503B091B1
:101F70004603B095A095909581959F4FAF4FBF4F69
:101F80008093430390934403A0934503B093460387
:101F90006FC00E94E20060934B0370934C038093E8
:101FA0004D0390934E0364C0873509F061C0809162
:101FB0004B0390914C03A0914D03B0914E03B0950B
:101FC000A095909581959F4FAF4FBF4F80934B0346
:101FD00090934C03A0934D03B0934E0349C00E94CD
:101FE000750B60935B0370935C0380935D03909328
:101FF0005E033EC00E94750B60936303709364039D
:10200000809365039093660333C085E893E00E9454
:102010004B0B60933B0370933C0380933D03909381
:102020003E0326C091E081330CF490E09093970337
:102030001FC085E893E00E9456149927909372037D
:102040008093710315C00E94750B60936B037093AE
:102050006C0380936D0390936E030AC00E94750B0E
:1020600060935303709354038093550390935603E6
:10207000809195038F5F809395031092960381E082
:10208000EAE23E1280E08093840396CD109296039C
:102090001092950310928303F2E0F0939403109250
:1020A00084031092970388CDEE3040F481E08E0FC8
:1020B00080939603F0E0EB57FC4F308280918403CD
:1020C00081117ACD8091830383258093830374CD1E
:1020D000023311059CF58091140290911502C2976C
:1020E0006CF560E087E00E94FE0362E370E080E050
:1020F00090E00E94B30460E087E00E94FE0360E08D
:102100008AE00E94FE0360E088E00E94FE0381EC0A
:1021100093E00E945C0680E00E9407086DE371E096
:1021200081EC93E00E94040281E00E9407086DE4C4
:1021300071E081EC93E00E940402E8C161E087E075
:102140000E94FE0380E00E949C0424EB30E0DC014E
:102150000E948F17A50194010E94A015F9013093E8
:10216000130220931202203282E038074105510504
:102170000CF03EC057FD06C0253B31052CF0E4EBCA
:10218000F0E002C0E0E0F0E08091DA03A8E8B0E01F
:102190006D01C81AD10887FDD394D601AA0FBB1FC1
:1021A000AA0FBB1F6D01BB0FEE08FF088091DB0378
:1021B00068E572E0681B710987FD7395660F771FEC
:1021C000660F771FCB01770FAA0BBB0B9C01AD01EC
:1021D0002C193D094E095F09DF010E94CA15A301B0
:1021E00092010E94A015C20ED31EE41EF51EF60138
:1021F0002091D9032C3088F53091DA0388E890E0FB
:10220000831B910937FD9395880F991F880F991F9C
:10221000E817F9078CF08091DB0368E572E0681B32
:10222000710987FD7395660F771F660F771FCF01C2
:102230006E177F070CF4CB010297880F991F4FB7D9
:10224000F89430E0F901EE0FFF1F2E0F3F1FF90148
:10225000EC5FFC4F928381834FBF62E370E080E0CC
:1022600090E00E94B30461E088E00E94FE0361E018
:1022700087E00E94FE0361E08AE00E94FE0381EC99
:1022800093E00E945C0680E00E9407086CE571E024
:1022900081EC93E00E94040281E00E9407086DE651
:1022A00071E081EC93E00E94040264E670E080E05B
:1022B00090E00E94B30481EC93E00E945C066DE71D
:1022C00071E081EC93E00E94040264E670E080E03B
:1022D00090E00E94B30444EF51E060E070E087E1D9
:1022E00094E00E94ED0868EC70E080E090E00E94CD
:1022F000B3044CE251E060E070E085E594E00E94B8
:10230000ED0868EC70E080E090E00E94B30444E6E1
:1023100050E060E070E087E994E00E94ED0865E03D
:1023200070E080E090E00E94B304C0903F03D09042
:102330004003E0904103F090420380914703909165
:102340004803A0914903B0914A0389839A83AB83E0
:10235000BC8380917B0390917C03A0917D03B0911D
:102360007E038F3F9F4FAF4FBF4F11F00E94ED0490
:10237000FFEFCF16F9ECDF06FAE9EF06FBE3FF0605
:10238000E1F0C701B6010E94831420E034E244E783
:1023900059E40E94A7161B018E839D8369817A816F
:1023A0008B819C810E94831420E034E244E759E44D
:1023B0000E94A7166B017C010CC0212C312C2AE74E
:1023C0002E8384E48D83C12CD12C8AE7E82E94E4FB
:1023D000F92E6CE871E087E692E00E94040264E660
:1023E00070E080E090E00E94B30467E971E087E666
:1023F00092E00E94040260EB71E087E692E00E94A6
:10240000040264E670E080E090E00E94B30467E9B3
:1024100071E087E692E00E9404026DEB71E087E6CE
:1024200092E00E94040264E670E080E090E00E9486
:10243000B30467E971E087E692E00E9404026CEC65
:1024400071E087E692E00E94040268EC70E080E0B0
:1024500090E00E94B3046EED71E087E692E00E9486
:10246000040220E030E04AE754E4B1018E819D810E
:102470000E947C14882319F03E812D8104C0212CF8
:10248000312C30E020E0B101832F922F0E942508EB
:102490006AEE71E087E692E00E94040220E030E0FC
:1024A0004AE754E4B601C7010E947C14811104C0BC
:1024B000C12CD12CE12CF12CB601C7010E942508BA
:1024C00068EC70E080E090E00E94B3048AE10E9432
:1024D0001A0868EF71E087E692E00E94EF0168EC6D
:1024E00070E080E090E00E94B30468EF71E087E65E
:1024F00092E00E94EF01033311050CF4F2CD8091BC
:10250000140290911502C3970CF4EBCD0E94CD02FA
:10251000F6CA91E090939403ABCD10929403A8CDAA
:102520008091290390912A030E943F188DE191E048
:102530009093A3038093A20382EA93E00C94BD05D9
:1025400010926A021092690288EE93E0A0E0B0E077
:1025500080936B0290936C02A0936D02B0936E0215
:102560008BE091E0909368028093670285EC90E0A5
:10257000909374028093730284EC90E090937602BF
:102580008093750280EC90E09093780280937702BC
:1025900081EC90E090937A028093790282EC90E053
:1025A00090937C0280937B0286EC90E090937E0275
:1025B00080937D021092800210928102109282021A
:1025C00010928302809128038C30A0F491E0980F40
:1025D000909328038093D90390E0FC01EE0FFF1F36
:1025E0008E0F9F1FFC01EC5FFC4F88EB9BE09283FA
:1025F000818303C08FEF8093D9031092C40310929C
:10260000C3038FE291E09093C2038093C1038CE0F7
:102610008093C5038FEF8093C6038BE08093C7033D
:1026200085E08093C80384E08093C90383E08093AE
:10263000CA0382E08093CB031092CC031092CD03A7
:102640001092CE031092CF031092D00341E060E1CC
:1026500081EC93E00E9468071092A5031092A403F6
:1026600088EE93E0A0E0B0E08093A6039093A703E8
:10267000A093A803B093A9038DE191E09093A303E5
:102680008093A2031092B9031092B8031092BB0377
:102690001092BA031092BD031092BC031092BF03B4
:1026A0001092BE036091C0036E7F6D7F6093C00384
:1026B0006695617081E068278AE00E94FE0361E010
:1026C0008AE00E946004EBE0F1E0E491E093B20361
:1026D000E7EFF0E0E491F0E0EE0FFF1FE752FF4F6D
:1026E000859194919093B4038093B30360E089E063
:1026F0000E9460048091C00381FD04C061E089E014
:102700000E94FE0389E08093AE03EAE0F1E0E491E9
:10271000E093AF03E6EFF0E0E491F0E0EE0FFF1F8F
:10272000ED51FF4F859194919093B1038093B00345
:102730004FEF5FEFBA0140932F0350933003609344
:1027400031037093320310923703109238031092C2
:10275000390310923A038FEF99ECAAE9BBE3809317
:102760003F0390934003A0934103B09342038093AF
:10277000470390934803A0934903B0934A0380937F
:102780004F0390935003A0935103B093520380934F
:10279000570390935803A0935903B0935A0380931F
:1027A0005F0390936003A0936103B093620340932F
:1027B0006703509368036093690370936A038FEF14
:1027C00090E09093700380936F0340937303509352
:1027D0007403609375037093760340937B03509367
:1027E0007C0360937D0370937E03109283031092A9
:1027F000840382E0809394031092950310929603D1
:1028000010929703109298031092990310929A03D2
:1028100010929B0310929D0310929C0310929F03B1
:1028200010929E031092850310922A03109229039E
:1028300010922C0310922B0310922E0310922D0352
:1028400061E070E080E090E00E94D718009789F086
:1028500090932A038093290310922C0310922B0348
:1028600020912D0330912E03232BC1F4FC01108203
:1028700015C08091290390912A03009711F00E94BE
:102880003F1810922A031092290310922E031092DF
:102890002D0310922C0310922B03089510922E03F7
:1028A00010922D036AEF71E00C94AF19FC01882798
:1028B0009927E89421912032E9F3293010F02E3045
:1028C000C8F32B3241F02D3239F4689404C00E94D1
:1028D0007414820F911D219120532A30C0F31EF4ED
:1028E000909581959F4F08957AE0979F902D879FAF
:1028F000802D910D112408950E94BE1408F481E0EA
:102900000895E89409C097FB3EF4909580957095E2
:1029100061957F4F8F4F9F4F9923A9F0F92F96E92B
:10292000BB279395F695879577956795B795F111A0
:10293000F8CFFAF4BB0F11F460FF1BC06F5F7F4F3D
:102940008F4F9F4F16C0882311F096E911C077234F
:1029500021F09EE8872F762F05C0662371F096E858
:10296000862F70E060E02AF09A95660F771F881F27
:10297000DAF7880F9695879597F90895990F0008CB
:10298000550FAA0BE0E8FEEF16161706E807F90741
:10299000C0F012161306E407F50798F0621B730BDC
:1029A000840B950B39F40A2661F0232B242B252B5D
:1029B00021F408950A2609F4A140A6958FEF811D00
:1029C000811D08950E94F5140C9466150E945815F7
:1029D00038F00E945F1520F0952311F00C944F15EC
:1029E0000C94551511240C949A150E94771570F3C8
:1029F000959FC1F3950F50E0551F629FF001729FA4
:102A0000BB27F00DB11D639FAA27F00DB11DAA1FB2
:102A1000649F6627B00DA11D661F829F2227B00DFF
:102A2000A11D621F739FB00DA11D621F839FA00D8A
:102A3000611D221F749F3327A00D611D231F849FDA
:102A4000600D211D822F762F6A2F11249F57504031
:102A50009AF0F1F088234AF0EE0FFF1FBB1F661FAC
:102A6000771F881F91505040A9F79E3F510580F075
:102A70000C944F150C949A155F3FE4F3983ED4F3F1
:102A8000869577956795B795F795E7959F5FC1F719
:102A9000FE2B880F911D9695879597F9089597F9C4
:102AA0009F6780E870E060E008959FEF80EC0895F4
:102AB00000240A941616170618060906089500241D
:102AC0000A9412161306140605060895092E039497
:102AD000000C11F4882352F0BB0F40F4BF2B11F40B
:102AE00060FF04C06F5F7F4F8F4F9F4F089557FD6A
:102AF0009058440F551F59F05F3F71F04795880F6C
:102B000097FB991F61F09F3F79F087950895121602
:102B100013061406551FF2CF4695F1DF08C01616AE
:102B200017061806991FF1CF86957105610508945F
:102B30000895E894BB2766277727CB0197F9089576
:102B4000052E97FB1EF400940E94B71557FD07D081
:102B50000E94091607FC03D04EF40C94B71550954B
:102B60004095309521953F4F4F4F5F4F0895909579
:102B70008095709561957F4F8F4F9F4F08950E946C
:102B80002B16A59F900DB49F900DA49F800D911DB5
:102B900011240895B7FF0C94BF150E94BF15821B26
:102BA000930B08952F923F924F925F926F927F9274
:102BB0008F929F92AF92BF92CF92DF92EF92FF924D
:102BC0000F931F93CF93DF93CDB7DEB7CA1BDB0BF9
:102BD0000FB6F894DEBF0FBECDBF09942A8839889E
:102BE00048885F846E847D848C849B84AA84B984A5
:102BF000C884DF80EE80FD800C811B81AA81B981B1
:102C0000CE0FD11D0FB6F894DEBF0FBECDBFED01C4
:102C10000895A1E21A2EAA1BBB1BFD010DC0AA1F1D
:102C2000BB1FEE1FFF1FA217B307E407F50720F035
:102C3000A21BB30BE40BF50B661F771F881F991FB0
:102C40001A9469F760957095809590959B01AC01F9
:102C5000BD01CF010895A29FB001B39FC001A39F02
:102C6000700D811D1124911DB29F700D811D1124C5
:102C7000911D08955058BB27AA270E9452160C9404
:102C800066150E94581538F00E945F1520F039F43F
:102C90009F3F19F426F40C9455150EF4E095E7FBCC
:102CA0000C944F15E92F0E94771558F3BA17620755
:102CB00073078407950720F079F4A6F50C9499150D
:102CC0000EF4E0950B2EBA2FA02D0B01B901900147
:102CD0000C01CA01A0011124FF27591B99F0593F8B
:102CE00050F4503E68F11A16F040A22F232F342FD3
:102CF0004427585FF3CF469537952795A795F04021
:102D00005395C9F77EF41F16BA0B620B730B840B35
:102D1000BAF09150A1F0FF0FBB1F661F771F881FED
:102D2000C2F70EC0BA0F621F731F841F48F4879545
:102D300077956795B795F7959E3F08F0B0CF939537
:102D4000880F08F09927EE0F9795879508950E94B0
:102D5000BB160C9466150E945F1558F00E9458151A
:102D600040F029F45F3F29F00C944F1551110C9459
:102D70009A150C9455150E94771568F39923B1F3B1
:102D8000552391F3951B550BBB27AA276217730791
:102D9000840738F09F5F5F4F220F331F441FAA1F25
:102DA000A9F335D00E2E3AF0E0E832D091505040E1
:102DB000E695001CCAF72BD0FE2F29D0660F771F8F
:102DC000881FBB1F261737074807AB07B0E809F075
:102DD000BB0B802DBF01FF2793585F4F3AF09E3FFA
:102DE000510578F00C944F150C949A155F3FE4F35D
:102DF000983ED4F3869577956795B795F7959F5F3D
:102E0000C9F7880F911D9695879597F90895E1E088
:102E1000660F771F881FBB1F621773078407BA07E7
:102E200020F0621B730B840BBA0BEE1F88F7E09542
:102E300008950E9420176894B1110C949A15089572
:102E40000E947F1588F09F5798F0B92F9927B751A6
:102E5000B0F0E1F0660F771F881F991F1AF0BA953E
:102E6000C9F714C0B13091F00E949915B1E00895EE
:102E70000C949915672F782F8827B85F39F0B93FE0
:102E8000CCF3869577956795B395D9F73EF49095F1
:102E90008095709561957F4F8F4F9F4F08950E9449
:102EA000BE1408F48FEF08950E94BE14880B990B8E
:102EB0000895DB018F939F930E94BF15BF91AF913F
:102EC000A29F800D911DA39F900DB29F900D112484
:102ED0000895991B79E004C0991F961708F0961B76
:102EE000881F7A95C9F78095089597FB072E16F4E9
:102EF000009407D077FD09D00E94961707FC05D0F3
:102F00003EF4909581959F4F0895709561957F4F00
:102F10000895EE0FFF1F0590F491E02D09940E9493
:102F20002B16B7FF0895821B930B0895AA1BBB1B9A
:102F300051E107C0AA1FBB1FA617B70710F0A61BB9
:102F4000B70B881F991F5A95A9F780959095BC01DA
:102F5000CD010895CF93DF938230910510F482E084
:102F600090E0E091EC03F091ED0320E030E0C0E070
:102F7000D0E0309711F14081518148175907C0F0D6
:102F80004817590761F482819381209719F09B8338
:102F90008A832BC09093ED038093EC0326C0211508
:102FA000310519F04217530718F49A01BE01DF01E9
:102FB000EF010280F381E02DDCCF2115310509F10D
:102FC000281B390B2430310590F412968D919C9179
:102FD00013976115710521F0FB019383828304C06F
:102FE0009093ED038093EC03FD01329644C0FD0104
:102FF000E20FF31F81939193225031092D933C935B
:103000003AC02091EA033091EB03232B41F4209145
:103010000301309104013093EB032093EA032091E4
:103020000101309102012115310541F42DB73EB760
:103030004091050150910601241B350BE091EA03F4
:10304000F091EB03E217F307A0F42E1B3F0B2817B8
:10305000390778F0AC014E5F5F4F2417350748F011
:103060004E0F5F1F5093EB034093EA0381939193BC
:1030700002C0E0E0F0E0CF01DF91CF9108950F931F
:103080001F93CF93DF93009709F48CC0FC01329714
:10309000138212820091EC031091ED0301151105CA
:1030A00081F420813181820F931F2091EA033091B6
:1030B000EB032817390779F5F093EB03E093EA0364
:1030C00071C0D80140E050E0AE17BF0750F412962F
:1030D0002D913C911397AD012115310509F1D901CD
:1030E000F3CF9D01DA013383228360817181860FE2
:1030F000971F8217930769F4EC0128813981260F05
:10310000371F2E5F3F4F318320838A819B819383BA
:103110008283452B29F4F093ED03E093EC0342C046
:103120001396FC93EE931297ED01499159919E01EC
:10313000240F351FE217F30771F480819181840F0A
:10314000951F029611969C938E938281938113967C
:103150009C938E931297E0E0F0E0D80112968D9147
:103160009C911397009719F0F8018C01F6CF8D917F
:103170009C9198012E5F3F4F820F931F2091EA038D
:103180003091EB032817390769F4309729F410922E
:10319000ED031092EC0302C0138212821093EB0332
:1031A0000093EA03DF91CF911F910F910895A0E062
:1031B000B0E0EDEDF8E10C94D615EC01009721F4A8
:1031C000CB010E94AA17B8C0FC01E60FF71F9C01B3
:1031D00022503109E217F30708F4ACC0D9010D9170
:1031E0001C91119706171707B0F00530110508F468
:1031F0009FC0C80104978617970708F499C002502A
:103200001109061B170B019311936D937C93CF014A
:103210000E943F188DC05B01A01AB10A4C01800EBC
:10322000911EA091EC03B091ED0340E050E0E12C41
:10323000F12C109709F44AC0A815B905D1F56D9085
:103240007C901197630182E0C80ED11CCA14DB0484
:1032500080F1A3014A195B096A0182E0C80ED11C02
:103260001296BC9012971396AC91B5E0CB16D10490
:1032700040F0B282A38351834083D9016D937C9344
:103280000AC00E5F1F4FC301800F911FF901918388
:103290008083EB2DFA2FE114F10431F0D70113965E
:1032A000FC93EE93129744C0F093ED03E093EC038C
:1032B0003FC08D919C9111974817590708F4AC01B4
:1032C0007D0112960D90BC91A02DB3CF8091EA03A1
:1032D0009091EB0388159905E1F446175707C8F458
:1032E0008091010190910201009741F48DB79EB742
:1032F0004091050150910601841B950BE817F907D1
:10330000C8F4F093EB03E093EA03F901718360835F
:103310000FC0CB010E94AA177C01009759F0A801A9
:10332000BE010E94A619CE010E943F18C70104C029
:10333000CE0102C080E090E0CDB7DEB7EEE00C94A5
:10334000F21581E090E0F8940C94B619FB01DC01D1
:1033500002C001900D9241505040D8F70895FB01F2
:10336000DC0101900D920020E1F7089510E0CCE817
:10337000D0E004C0FE010E9489172196CD38D10704
:06338000C9F7F894FFCF2D
:10338600FF0000EE038000000000006402B70006A4
:1033960002AB02370215022902000000001503B72E
:1033A60000A303140369038103FC02000000005319
:1033B60006B700A303A2034750524D430020202026
:1033C600204E4F2046495245202020200020202014
:1033D600414C4C2053414645202020002020544893
:1033E60045524520495320464952452000204E4F1C
:1033F6005420534146452048455245200053656EAA
:1034060064696E6720534D532E2E2E0041542B4374
:103416004D47463D310D0041542B434D47533D2208
:103426002B323333323636333032363037220D00D4
:103436004649524520414C455254210D00464952B9
:1034460045204F434355524544210D0046495245B8
:10345600204F4343555245442120696E0D004C616F
:10346600746974756465203D2000204C6F6E676931
:1034760074756465203D20000D0A0047504747419A
:0E348600006E616E00696E66006F7666000073
:107E0000112484B714BE81FFF0D085E080938100F7
:107E100082E08093C00088E18093C10086E0809377
:107E2000C20080E18093C4008EE0C9D0259A86E02C
:107E300020E33CEF91E0309385002093840096BBD3
:107E4000B09BFECF1D9AA8958150A9F7CC24DD24C4
:107E500088248394B5E0AB2EA1E19A2EF3E0BF2EE7
:107E6000A2D0813461F49FD0082FAFD0023811F036
:107E7000013811F484E001C083E08DD089C08234E0
:107E800011F484E103C0853419F485E0A6D080C0E4
:107E9000853579F488D0E82EFF2485D0082F10E0AE
:107EA000102F00270E291F29000F111F8ED06801E7
:107EB0006FC0863521F484E090D080E0DECF843638
:107EC00009F040C070D06FD0082F6DD080E0C81688
:107ED00080E7D80618F4F601B7BEE895C0E0D1E017
:107EE00062D089930C17E1F7F0E0CF16F0E7DF06D8
:107EF00018F0F601B7BEE89568D007B600FCFDCFD4
:107F0000A601A0E0B1E02C9130E011968C91119780
:107F100090E0982F8827822B932B1296FA010C0160
:107F200087BEE89511244E5F5F4FF1E0A038BF0790
:107F300051F7F601A7BEE89507B600FCFDCF97BE46
:107F4000E89526C08437B1F42ED02DD0F82E2BD052
:107F50003CD0F601EF2C8F010F5F1F4F84911BD097
:107F6000EA94F801C1F70894C11CD11CFA94CF0C13
:107F7000D11C0EC0853739F428D08EE10CD085E9AC
:107F80000AD08FE07ACF813511F488E018D01DD067
:107F900080E101D065CF982F8091C00085FFFCCF94
:107FA0009093C60008958091C00087FFFCCF809118
:107FB000C00084FD01C0A8958091C6000895E0E648
:107FC000F0E098E1908380830895EDDF803219F02E
:107FD00088E0F5DFFFCF84E1DECF1F93182FE3DFCA
:107FE0001150E9F7F2DF1F91089580E0E8DFEE27F6
:047FF000FF270994CA
:027FFE00040479
:0400000300007E007B
:00000001FF
